:1000000000300020150400001B0400001F04000045
:1000100000000000000000000000000000000000E0
:100020000000000000000000000000005504000077
:100030000000000000000000590400004D06000010
:10004000110400001104000011040000110400005C
:10005000110400001104000011040000110400004C
:10006000110400001104000011040000110400003C
:10007000110400001104000011040000110400002C
:10040000FFFFFFFFFFFFFFFFFFFFFFFFFEFFFFFFFD
:1004100000BEFEE710B500F025F800BEFEE70420A0
:100420007146084202D0EFF3098001E0EFF3088043
:1004300071460B4A104770B504000D00044800F0E7
:1004400059FA2900200000F011FA00BEFEE7C0466C
:100450008814000000BEFEE700BEFEE77047000003
:100460003704000030B583B000F0F8F9314B324A60
:100470001360324A1360324B324A03E0116819604C
:100480000433043230498B42F8D32B4B1A682F4B7C
:100490009A4200D0FEE7294B1A682D4B9A42F9D1B7
:1004A000244B2C4A13602C4A13602C4B02E0002290
:1004B0001A6004332A4A9342F9D3264B1B68002B57
:1004C00003D1254B1B68002B00D0FEE700F0CAF9D2
:1004D000694601A800F08EFA224B234CE41AA410BE
:1004E0000025AC4214DC214B214CE41AA410002559
:1004F000AC4213DC0099019800F0ACF805001D4BEC
:100500001D4CE41AA410002C0EDC280000F04CFA5C
:10051000AA00144BD35898470135E2E7AA00134BC1
:10052000D35898470135E3E7013CA200114BD3585B
:100530009847E8E7BABADECA00F0FF1F74F0FF1F61
:1005400000F0FF1F2C15000078F0FF1F78563412C2
:100550003254769878F0FF1F14F1FF1F78F0FF1FD8
:1005600018F1FF1FA4050000A4050000A405000069
:0C057000A4050000A4050000A405000084
:10057C002C15000000F0FF1F78F0FF1F2C15000059
:10058C00000000000000000078F0FF1F18F1FF1FB2
:08059C00000000000000000057
:1005A40009490A4A88588023DB0003438B50802280
:1005B4005200074BDA64074B5A69802109030A4346
:1005C4005A6159607047C0460070044038100000FA
:1005D40000A0044040F00F4010B50C4B1868FA21FD
:1005E400890000F00DFA0138094B98420DD8094AE8
:1005F40050600948036A1B021B0AC02109060B4309
:100604000362002393600733136010BD04F0FF1FDF
:10061400FFFFFF0010E000E000ED00E0034B186076
:10062400024B1B68002BFBD17047C0460CF1FF1F27
:10063400044B1B68002B03D0024A1368013B136070
:100644007047C0460CF1FF1F10B5FFF7F1FF10BD56
:1006540010B5134800F062F9124B1968124800F003
:1006640047F9FFF7B9FFFFF79BFF00240FE0FA20DB
:100674008000FFF7D3FF802212030C4B5A60FA204C
:10068400FFF7CCFF01342100094800F031F9802242
:100694001203064B9A60002CE9D00648E9E7C046ED
:1006A400A013000004F0FF1FB413000040F00F403B
:1006B400CC130000EE020000124B002188225201EC
:1006C400995080208002104A9850104A06231370D3
:1006D4005170D07840B219330340202003435BB2F9
:1006E400DBB2D37080200A4B187011715171074B23
:1006F4009B79DB06FBD5054B9A790C231A42FAD178
:100704007047C0460070044044100000004006409A
:100714000050064070B5484B1B783F22934300D0ED
:100724006DE0454B5B795B0653D4434B1B785B0709
:1007340012D4414C2278D208072313400121994056
:100744000B00FF2119403D4800F05AF9627830232C
:100754001A4203D0400901E080200002364BDB78C6
:100764001F229343602B28D0DAB2602A0BD9DAB265
:10077400A02A27D012D9DAB2C02A27D0E02A34D14D
:100784002F4B584331E0202B0ED0402B11D0002B9F
:100794002BD183001818C301180026E0802A24D125
:1007A400B7239B00584320E0830018180302180065
:1007B4001BE003011B1AD80117E083001818430239
:1007C400180012E0B723DB0058430EE01D4B5843DA
:1007D4000BE0194D29791F2421400131174800F0FD
:1007E4000FF96B79234018335843174B174AD158E4
:1007F400090F013100F004F9154B186070BD0E4B60
:100804001B783F229343402B07D00B4B1B783F228E
:100814009343802BF2D10948E7E7074B5B78DB076A
:1008240007D5054B1A7A5208072313400948D840C4
:10083400DBE780200002D8E70040064000127A007F
:10084400710B000095080000441000000070044083
:1008540004F0FF1F00093D0010B5FFF72DFF10BD88
:1008640010B5FFF757FF10BD70B504000D00154813
:1008740000F03EF82168144800F03AF86168134823
:1008840000F036F8A168124800F032F8E168114827
:1008940000F02EF82169104800F02AF861690F4829
:1008A40000F026F8A1690E4800F022F8E1690D482D
:1008B40000F01EF80C4800F01BF829000B4800F06B
:1008C40017F870BDD8130000E8130000F8130000F7
:1008D4000814000018140000281400003814000044
:1008E400481400005814000068140000701400003C
:1008F4000FB400B583B004AB04CB01938021064848
:1009040000F042F9002803DD0100034800F046F836
:1009140003B008BC04B018477CF0FF1F10B50400F6
:1009240000F000F90100200000F038F8012102482D
:1009340000F034F810BDC046E4130000F0B5C6461C
:1009440000B586B0040001914356002B01D0019FED
:100954001CE00426301C211CABBE041C019806B00C
:1009640004BC9046F0BD0022A25602A9CA54013329
:100974000134B342F7D302AA904600224146CA5436
:100984000425281C4146ABBE8046BF1B002FE5D082
:100994003E00102F00D910260023EAE710B5FFF718
:1009A400CDFF10BDFEE7000010B503000D4A12682C
:1009B400002A0BD00B4A1068033303229343C31855
:1009C400094A934206D8074A136010BD0749054AED
:1009D4001160EFE700F0A0F80C230360012040420F
:1009E400F3E7C046FCF0FF1F002C002018F1FF1FA6
:1009F40001230360014B0B607047C04608F0FF1FE2
:100A0400002243088B4274D303098B425FD3030A49
:100A14008B4244D3030B8B4228D3030C8B420DD35C
:100A2400FF22090212BA030C8B4202D312120902EA
:100A340065D0030B8B4219D300E0090AC30B8B4228
:100A440001D3CB03C01A5241830B8B4201D38B03D6
:100A5400C01A5241430B8B4201D34B03C01A52417B
:100A6400030B8B4201D30B03C01A5241C30A8B42BE
:100A740001D3CB02C01A5241830A8B4201D38B02A9
:100A8400C01A5241430A8B4201D34B02C01A52414D
:100A9400030A8B4201D30B02C01A5241CDD2C309BF
:100AA4008B4201D3CB01C01A524183098B4201D33B
:100AB4008B01C01A524143098B4201D34B01C01A26
:100AC400524103098B4201D30B01C01A5241C3089E
:100AD4008B4201D3CB00C01A524183088B4201D30D
:100AE4008B00C01A524143088B4201D34B00C01AF9
:100AF4005241411A00D20146524110467047FFE765
:100B040001B5002000F006F802BDC0460029F7D068
:100B140076E770477047C046014B18687047C04677
:100B240010F0FF1F0023C25C0133002AFBD1581EC2
:100B3400704730B514009BB005001A00002C05DA8C
:100B44008B230360012040421BB030BD82236846E2
:100B54009B0083810023009104919C4200D0631E7A
:100B640002930593012369465B42CB8128001E9BB7
:100B740000F0D6F8431C01DA8B232B60002CE3D061
:100B84000023009A1370DFE707B5009313000A00EF
:100B9400010002480068FFF7CCFF0EBD10F0FF1FF4
:100BA400032370B5CD1C9D43083506000C2D1ED2C1
:100BB4000C25A9421DD8300000F076FB254A1468A4
:100BC4002100002919D1244C2368002B03D13000C3
:100BD40000F032FB20602900300000F02DFB431CA4
:100BE4002CD10C233000336000F05FFB03E0002DB8
:100BF400DFDA0C233360002070BD0B685B1B1AD452
:100C04000B2B03D90B60CC18256003E08C420ED16A
:100C140063681360300000F048FB200007220B30AB
:100C2400231D9043C31AE7D05A42E250E4E74B68CD
:100C340063600C00EEE70C004968C2E70323C41CA0
:100C44009C43A042E0D0211A300000F0F5FA431C86
:100C5400DAD1C6E704F1FF1F08F1FF1FF0B58E6873
:100C640085B007000C00039201939E4239D890236B
:100C74008A89DB001A4234D00325096923685B1A88
:100C84000293636902985D43EB0F5D19019B6D103C
:100C940001331B18AB4200D91D00530532D529007E
:100CA4003800FFF77DFF061E09D10C233B6040236B
:100CB4000120A28940421343A38105B0F0BD029AEA
:100CC400216900F0D6FAA389144A1A4080231343F9
:100CD400A381029B2661F61826606561019EED1AC8
:100CE400A560019BB34200D21E0032000399206824
:100CF40000F0C8FAA36800209B1BA36023689E1918
:100D04002660DAE72A00380000F01AFB061EE0D15C
:100D14002169380000F0CAFAC7E7C0467FFBFFFF2D
:100D2400F0B59FB0029005938B890F0016001B0647
:100D340011D50B69002B0ED14021FFF731FF38602C
:100D44003861002805D10C23029A013813601FB0C2
:100D5400F0BD40237B61002306AD6B6120336B76CD
:100D64001033AB7634002378002B47D1A31B0493B4
:100D74000DD0A31B320039000298FFF76FFF431C0C
:100D840000D1B5E06A69049B944663446B6123789F
:100D9400002B00D1ACE00122002352426A6002A978
:100DA4005432521801342B60EB60AB601370AB65A6
:100DB400584E05222178300000F050FA621C0028B9
:100DC40020D12968CB0604D5532302AE20309B19C9
:100DD40018700B0704D553232B2002AE9B191870EF
:100DE40023782A2B16D000200A21099B2278303A36
:100DF400092A55D9002815D0099313E0252BB5D01D
:100E04000134B0E70123801B8340296814000B439D
:100E14002B60CDE7059B181D1B680590002B39DB63
:100E24000993140023782E2B0BD16378621C2A2B90
:100E34003ED1059B02341A1D1B680592002B34DB3E
:100E44000793354E21780322300000F007FA00287A
:100E540006D04023801B83402A68013413432B604F
:100E6400217806222D48661C297600F0F7F900281F
:100E740046D02B4B002B2FD12968059B0722C9058F
:100E840028D59B189343083305936B69039A9B18E1
:100E94006B6167E75B42EB6002230B432B60C0E7A7
:100EA4004B4301349B180120A0E701235B42C7E7B1
:100EB400002314000A201A006B60217830390929B4
:100EC40003D9002BBDD00792BBE74243013452182B
:100ED4000123F2E70733D5E705AB00933A00114B42
:100EE4002900029800E000BF0390039B0133CCD19A
:100EF400BB890B985B0600D429E70120404226E712
:100F040005AB00933A00074B2900029800F07AF8E9
:100F1400EAE7C046F8140000FE14000002150000C1
:100F240000000000610C0000F7B5150001938A6809
:100F34000B6900900C00934200DA130022002B602E
:100F440043321278002A01D001332B6023689B06B8
:100F540002D52B6802332B60062723681F4027D055
:100F6400230043331B785A1E93412268920630D4DF
:100F74002200019943320098089EB047431C25D0B3
:100F8400062320682A68E16803400025042B03D166
:100F94008D1AEB43DB171D40A3682269934201DDE0
:100FA4009B1AED180027BD4220D1002010E0013724
:100FB400E3682A689B1A9F42D2DA2200012319327D
:100FC40001990098089EB047431CF0D1012040428B
:100FD400FEBD3020E1184331087021005A1C453110
:100FE4000978A218433202331170C1E722000123A9
:100FF4001A3201990098089EB047431CE6D0013785
:10100400D1E70000F0B58BB006920A004332079393
:10101400059004920A7E0C00109B6E2A00D18FE08A
:1010240017D8632A2CD008D8002A00D199E0582A6E
:1010340054D026004236327029E0642A01D0692A4D
:10104400F7D121681A68080623D5111D196015689F
:1010540025E0732A00D188E008D86F2A29D0702AA5
:10106400E7D1202209680A43226003E0752A20D0D0
:10107400782ADED122007821453211706C4A30E0A2
:101084000E001A684236111D19601368337001236B
:1010940079E04906D9D5111D19600023D55E002DCC
:1010A40003DA2D23049A6D421370624B0A270393CB
:1010B4002FE020681968050603D5081D18600D681F
:1010C40005E04006F9D50D68081D1860ADB2594B0E
:1010D400082703936F2A18D00A2716E045310A70AF
:1010E400544A03921A682168101D1860156808068E
:1010F40022D5CB0702D52023194321601027002DC8
:1011040003D1202322689A43226023000022433320
:101114001A706368A360002B5CDB0422216891438E
:101124002160002D58D1049E002B64D02600039B1F
:1011340042361B7833705EE04806DAD5ADB2D8E7A4
:1011440009681A68080605D5111D196013686269D3
:101154001A6006E04906F7D5111D19601368A28AC2
:101164001A800023049E236154E01A68111D19603B
:10117400166800216268300000F070F8002801D081
:10118400801B6060636823610023049A137041E04C
:101194002369320006990598079DA847431C43D04C
:1011A400236800259B070FD4099BE06898423DDA29
:1011B40018003BE022000123193206990598079E86
:1011C400B047431C30D00135E368099A9B1A9D420D
:1011D400F0DBE9E7002DA9D0049E28003900FFF7D1
:1011E40095FC039B013E5B5C280033703900FFF7DC
:1011F40007FC051EF1D1082F09D12368DB0706D5AA
:1012040063682269934202DC3023013E3370049BFD
:101214009B1B2361079B09AA00932100069B059849
:10122400FFF782FE431CB3D1012040420BB0F0BD56
:101234001A15000009150000002370B5064C0500BE
:1012440008002360FFF7B0FB431C03D12368002B85
:1012540000D02B6070BDC04610F1FF1FC9B28218C8
:10126400904201D10020704703788B42FBD00130BB
:10127400F6E7002310B59A4200D110BDCC5CC454EB
:101284000133F8E710B5884202D98B18984208D385
:1012940000239A4207D0CC5CC4540133F9E78B5C39
:1012A4008354013AFBD210BD7047704770B50500F6
:1012B400002910D00C1F2368002B00DAE418280042
:1012C400FFF7F2FF1D4A1368002B05D16360146019
:1012D4002800FFF7EAFF70BDA34209D9216860180E
:1012E4008342F3D118685B6841182160EEE713006C
:1012F4005A68002A01D0A242F9D919685818A042A4
:101304000BD120680918581819608242E0D110687E
:101314005268411819605A60DAE7A04202D90C23D6
:101324002B60D5E721686018824203D110685268A7
:101334004118216062605C60CAE7C04604F1FF1F87
:10134400F8B507000D001600002905D11100FFF7BC
:1013540027FC04002000F8BD002A03D1FFF7A6FFF4
:101364003400F7E700F012F82C008642F2D931007D
:101374003800FFF715FC041EECD029003200FFF7FB
:1013840078FF29003800FFF791FFE3E70B1F1B6884
:10139400181F002B01DA0B58C018704748656C6C95
:1013A4006F2041524D20576F726C64210000000081
:1013B40053797374656D20636C6F636B3A20257584
:1013C40020487A0A000000005365636F6E6420258C
:1013D400750A0000537461636B206672616D653A2F
:1013E4000A000000205230203D2020253038580AC1
:1013F40000000000205231203D2020253038580ABA
:1014040000000000205232203D2020253038580AA8
:1014140000000000205233203D2020253038580A97
:101424000000000020523132203D20253038580A77
:1014340000000000204C52203D2020253038580A5E
:1014440000000000205043203D2020253038580A59
:101454000000000020505352203D20253038580A07
:10146400000000004D6973630A000000204C522FF5
:101474004558435F52455455524E3D202530385807
:101484000A0000005B486172644661756C745D0A11
:101494000000000000000000000000000000000048
:1014A4000000000000000000000000000000000038
:1014B4000000000000000000000000000000000028
:1014C4000000000000000000000000000000000018
:1014D4000000000000000000000000000000000008
:1014E40000000000000000000000000000000000F8
:1014F40000000000232D302B2000686C4C00656632
:101504006745464700303132333435363738394150
:101514004243444546003031323334353637383966
:07152400616263646566006B
:10152C00785634120000800200F1FF1F000000000A
:10153C0014F0FF1F00000000B8140000D8140000C5
:10154C0098140000000000000000000000000000E3
:10155C00000000000000000000000000000000007F
:10156C00000000000000000000000000000000006F
:10157C00000000000000000000000000000000005F
:10158C00000000000000000000000000000000004F
:08159C000000000032547698B3
:040000030000046590
:00000001FF
